:020000040000FA
:020000002C28AA
:080008000B118B13A40003305F
:10001000A5008519152805191B2885182128850193
:10002000200877208600851526288501210877205D
:10003000860005152628850122087720860085146C
:10004000262885012308772086000514C630810004
:10005000250883002408090007309F00C63081006E
:10006000831601308600F030850081128111011461
:10007000811401158B178B16831285018601A0014F
:10008000A101A201A301B601051B5020051B5920A7
:10009000851B5020851B6720051A5020051A00205B
:1000A000FF30B400FF30B500B50B5428B40B522814
:1000B0000800A20A2208103A031D6628A30A230892
:1000C000A201103A031D6628A10AA3010800A20399
:1000D0002208003A031D76280F30A200A30323084C
:1000E000003A031D7628A1030F30A3000800820701
:1000F0007E340C34B6349E34CC34DA34FA340E34D4
:10010000FE34DE34EE34F8347234BC34F234E2348B
:02400E00103F61
:00000001FF
