:020000040000FA
:020000002C28AA
:080008000B118B13A40003305F
:10001000A5008519152805191B2885182128850193
:100020002008A22086008515262885012108A22007
:1000300086000515262885012208A2208600851441
:10004000262885012308A22086000514C6308100D9
:10005000250883002408090007309F00C63081006E
:10006000831601308600F030850081128111011461
:10007000811401158B178B16831285018601A0014F
:10008000A101A201A301B601051B5020051B84207C
:10009000851B5020851B9220051A5020051A002030
:1000A000FF30B400FF30B500B50B5428B40B522814
:1000B0000800361C5C286828B60AA008A600A1081B
:1000C000AB00A208AC00A001A101A201A30108009D
:1000D000051B5020051B8420851B5020851B92206A
:1000E00006185020061859202002031CA800B3202F
:1000F000A102031CAA00B3202202031CAE00B320FD
:100100000800AE00B3280800A20A2208103A031D16
:100110009128A30A2308A201103A031D9128A10ADD
:10012000A3010800A2032208003A031DA1280F30F2
:10013000A200A3032308003A031DA128A1030F3046
:10014000A300080082077E340C34B6349E34CC34CD
:10015000DA34FA340E34FE34DE34EE34F8347234E9
:0A016000BC34F234E234020702342A
:02400E00103F61
:00000001FF
