:020000040000FA
:020000002C28AA
:080008000B118B13A40003305F
:10001000A5008519152805191B2885182128850193
:100020002008A52086008515262885012108A52001
:1000300086000515262885012208A520860085143E
:10004000262885012308A52086000514C6308100D6
:10005000250883002408090007309F00C63081006E
:10006000831601308600F030850081128111011461
:10007000811401158B178B16831285018601A0014F
:10008000A101A201A301051B5420051B8720851B8C
:100090005420851B9520051A5420051A00200618A7
:1000A000542006185D204328FF30B200FF30B30013
:1000B000B30B5828B20B56280800A008A600A108C8
:1000C000A700A208A800A308A900A001A101A201FD
:1000D000A301051B5420051B8720851B5420851B6D
:1000E0009520061854200618762008002602031CC6
:1000F000A6008420A702031C84202802031C84205D
:10010000A902031C84280800A300B6280800A20A3C
:100110002208103A031D9428A30A2308A201103ACA
:10012000031D9428A10AA3010800A2032208003A93
:10013000031DA4280F30A200A3032308003A031DC7
:10014000A428A1030F30A300080082077E340C34DA
:10015000B6349E34CC34DA34FA340E34FE34DE3421
:10016000EE34F8347234BC34F234E2340207023430
:02400E00103F61
:00000001FF
